:020000040000FA
:10000000E8020020C10000009707000091070000EF
:1000100000000000000000000000000000000000E0
:10002000000000000000000000000000FB070000CE
:100030000000000000000000F7070000FD070000BE
:1000400000000000D3000000000000009507000041
:1000500000000000CD060000CF060000D106000021
:10006000D3060000000000000000000000000000B7
:1000700095060000A908000000000000CD0800005F
:10008000D3000000AD0800000000000000000000E8
:10009000F5070000000000000000000093070000CA
:1000A00000000000F907000000000000D108000077
:1000B0001D0900000000000000000000000000001A
:1000C0000448804704480047FEE7FEE7FEE7FEE7F6
:1000D000FEE7FEE701080000DD000000034885465A
:1000E00000F0FCF900480047CD090000E8020020BC
:1000F000F0B51FB40646002082B0054640240191A9
:1001000000901BE0019922460F46304600F02DFA80
:10011000049A059B801A994110D31046194622462D
:1001200000F013FA361A8F41019722460120002170
:10013000009F00F00AFA38184D4100902046641ED6
:100140000028DFDC019B00982946324607B0F0BD4D
:10015000F0B507460846584087B0C00F04904800E5
:100160000E46590040084908BC1A884105D2384655
:1001700031461E4617460B460246580040081043BB
:100180004CD0300D039040055900400D490D0590AD
:10019000401A0290402872DA18030121000B090569
:1001A0000843019004980092002805D0019952421A
:1001B0000020884100920190029840210A1A01997A
:1001C000009800F0C2F905460C466B4607CB00F0DC
:1001D000DDF9C0197141039A0E0D0023D71756405F
:1001E0001A467A40164344D0049A002A2DD0029A27
:1001F000012A039A15DC1205C01A91410126360521
:10020000001C7141D20F059ED20700930192029605
:100210002A46234600F0DAF907B0F0BD38463146E9
:10022000FAE71605224A0F46B218C01AB741012153
:100230000905001C4F4100187F41114618187941EB
:10024000E20F10436D19644113E0E2076D08154396
:100250006408C2071443039A01261205C01A91418B
:100260003605001C7141CE07400830434908C018CC
:1002700051412A46234600F09CF9CDE7FFE7049858
:1002800001224000C117121A00238B410498314605
:10029000C417381AA141EEE730B40124E4076340E3
:1002A00030BC55E730B40124E407614030BC4FE76F
:1002B0000000E0FFF0B51FB488B00B990998002446
:1002C00048400999C00F490049080991C0070B9996
:1002D0000090490049080B9109990898A6460843DF
:1002E0001CD00B990A98084318D0099801244000A3
:1002F000420D4800410D099824050003000B2043DE
:1003000009900B980003000B20430B9050181C49D8
:100310004018002201901446104605E000200146D6
:100320000DB0F0BD032801DA034600E003239C462C
:10033000C11A0AAE0AE05F0008ADED5B4F00F75B43
:100340007D430027AA187C41491C5B1E6145F2DDF4
:10035000410004AB5A522104120C0A43240C401CE5
:100360000828DFDB01980290009970460191009007
:10037000059B049A0799069800F028F9D0E7000039
:100380000DFCFFFFF0B50C465C4085B0E40FE407C0
:1003900003944C000026640859009446490802461C
:1003A0000296224321D062460A431ED06200570DB6
:1003B0004A000E032303550D012402462C4924054F
:1003C000781B1B0B360B40182343264361460090D5
:1003D0001C46501AB44103D30098401C009002E020
:1003E000921800985B41002803DA0020014605B00E
:1003F000F0BD0020012109050746864611E064464C
:100400001D46141BB54106D36546521BB3417446C5
:1004100007430C43A646CD074008490828439218D5
:100420005B4105460D43EAD11046184313D06046A0
:10043000194650407140084306D06046101AB34137
:1004400006D20122002306E000220123DB0702E09E
:100450000122D2435310009874460105381C6141B3
:10046000029C039D0019694100F0A3F8BFE700005A
:10047000FD0300004A0009030123090B1B05194372
:100480000A4B10B5520D9A4202DA0020014610BD07
:10049000064B34339A4203DC9A1A00F066F810BD1A
:1004A000034BD21800F051F810BD0000FF0300000C
:1004B000CDFBFFFF10B5002904DB0124E407404217
:1004C0008C412146002B04DB1C460123DB075242F2
:1004D000A341994200D1904210BD00001CB50948CB
:1004E00000900948019005460126009C05E0E3685C
:1004F00007CC33430C3C98471034AC42F7D3FFF79A
:10050000F1FD00002C1600003C16000070B50446FA
:10051000002903D000202022012310E0002801D070
:100520000020C043C046C0460DE02546D5408D4260
:1005300005D30D469540641B1D4695404019154650
:10054000521E002DF1DC214670BD10B5202A04DBBF
:100550000146203A9140002010BD914020239C1A72
:100560000346E3401943904010BD10B5202A04DB38
:100570000846203AD040002110BD0B46D340D04061
:100580002024A21A91400843194610BD10B5202A14
:1005900006DBCB170846203A1041C1170B4306E093
:1005A0000B461341D0402024A21A9140084319461B
:1005B00010BD10B5002B08DA0024401C61419218D0
:1005C0005B411A4301D14008400010BDF0B51FB493
:1005D00082B005460C0003D0084600F06DFB02E037
:1005E00000F06AFB20300246009021462846FFF7C3
:1005F000ACFF049B059A04460F4618431143084379
:1006000014D0184610431BD0009840210A1A1846EF
:100610000599FFF7AAFF05460E46009A059904982A
:10062000FFF793FF084305D0012004E02046394638
:1006300007B0F0BD0020C11705430E432C433743DC
:1006400000990E986305401A7905E40A00220C43CC
:10065000FD0A0A3002D500200146E9E7010510191C
:1006600069410C9C0D9D00196941FFF7A2FFDFE76E
:10067000D2B201E00270401C491EFBD2704700223A
:10068000F6E710B513460A4604461946FFF7F0FF91
:10069000204610BD0B488168490711D5016C0A49F5
:1006A0000A680121CB0601681940521C03D00029B9
:1006B00004D0016801E0002900D10068A748406922
:1006C0007047C046002401402CF00140704770473D
:1006D00070477047B0B50D4BC3180C24E341042B91
:1006E00010D283680B4383600023002909D0CC0714
:1006F00004D014469C400568254305601B1D49082D
:10070000F3E7B0BD2148D22100F05AF9F0FFFFB75E
:1007100010B51722D20682180C23DA41042A28D2F7
:100720000A68130C21D1002A1FD00B79032B24D285
:100730004979032925D25C1E012C04D88260022B42
:100740000AD054210FE0C26002290AD0012905D045
:10075000002909D1C26405E0502104E0C2644021AF
:1007600001E082644421425010BD08482F2100F06E
:1007700027F906482E2100F023F90448302100F023
:100780001FF90248312100F01BF9C046F81500009E
:10079000FEE7704770477047F8B58378022B1BD28D
:1007A0004278042A1CD211490078002B0DD0FC237A
:1007B00003400F4C1D598607F60EFF27B740BD4377
:1007C0009201B2402A431A5100E080311F221040AA
:1007D000012282400A60F8BD03482C2100F0F0F8A5
:1007E00001482D2100F0ECF8C615000000E100E002
:1007F00000E400E0704770477047704770470000A2
:1008000070B52648016B0F230B40856984694268E7
:1008100041680F2B01D0002B18D140231A40FF262E
:100820003602354005263602B54205D106252C4054
:10083000062C01D1002A04D0002A00D04360184AB7
:100840008260090502D50121C90241600121CA4324
:10085000144B1C6814401C609C680C439C601C6911
:1008600014401C61026803239A430260026802601C
:100870001F22130104689C4304600368036012068E
:10088000036893430360026802600268920700D025
:10089000FEE7090502680A43026070BD0CF00140E2
:1008A00056AB000008180040704700000648016879
:1008B000C90707D0016801220A430260EE48416976
:1008C000491C41617047C04600100040704700005D
:1008D00070B5214C2069C00704D1E7480169491C63
:1008E000016170BDE44D6E69E868301A062806D3D0
:1008F00000206881284620304121FFF7C0FEEE60CD
:10090000206869893F2905D869894A1C6A81691864
:10091000202288542069C007F2D170BD70470000C2
:1009200070B50C4A1023136000250B4C8D4206D085
:1009300026697605FCD4465D26606D1CF6E72069C5
:10094000C005FCD5CC4841694469641A022CFBD32C
:10095000536070BD78300048004400400000002023
:1009600083B0C0B503A80EC003AB00930748802135
:1009700007A200F089F9012803DB81B20348FFF7E1
:10098000CFFF88BC01BC03B00047C0466100002017
:1009900057726F6E6720706172616D6574657273F6
:1009A0002076616C75653A2066696C652025732038
:1009B0006F6E206C696E6520256C750D0A00000055
:1009C0000A460146FFF7CCFFFEE700008AB008A9FF
:1009D00001248C800894994E3046FFF799FE10361A
:1009E00002220692964F30462146B8479548002687
:1009F0000660954807210160944D286908210191FE
:100A0000884328612869286164206861904868608B
:100A100008A8847046701121017029692143296159
:100A2000FFF7BAFE2868204328608A4D1035202140
:100A300028462246B847402128462246B84708A9FA
:100A40008C80102708978348FFF762FE07A8847000
:100A50001B21017006994170FFF79EFE7E49886850
:100A6000204388600296F0430E46C8610390886177
:100A7000FF200A3009680143762081433160774DB9
:100A80002868C005C00E411C7548FFF73FFD296866
:100A9000C900C90E491CFFF739FD0546C00A4B289D
:100AA000049420460BD34B24E1022846FFF72EFD89
:100AB0006C4941434919A202914200D9401C70601F
:100AC00030688021014331606248C767664A6748E1
:100AD0001060674B18460838049CE10301605C60B5
:100AE000186806990843186018682043186003982E
:100AF0001060200208AEB080019808905D4D284635
:100B00003146FFF705FEB480039C0897284631461E
:100B1000FFF7FEFD08A8001D069057488169059162
:100B2000584E41690598091A05297ED352484169F2
:100B300005918161AF6701210A2906D0EF672A6814
:100B4000120707D5AF67491CF6E74B480178002923
:100B500011D11EE048480278C9B2002909D0437873
:100B60005B1A5C425C412242039C049A134607D004
:100B70000FE0002A0DD041784A424A41002319462D
:100B800041700370037A4169002A31D0002B04D1EF
:100B90004BE04169027A002A47D0C269891A2829A4
:100BA00043D9029A027201790271032900D80A46D8
:100BB000FE230B40022B00D01146002935D008A897
:100BC000019A82802D4A0280817100202C490428DC
:100BD00020D0069A125C5140E21F002A06D04B0832
:100BE000C90700D073401946521CF6E7401CEEE7D7
:100BF000002B09D0C2698A1A142A16D3C161282A87
:100C000011D80179491C0FE0C161012101710499DA
:100C100001720AE008A841800821FFF781FE16480A
:100C20008069059001E0012101710F4A0F491160AF
:100C300001210F4B596014600F4872E70010004803
:100C4000D5060000041400480018004004100040BD
:100C5000BF12000000300048044400400CF0014086
:100C6000006CDC0200A8FDFF0034004051E5CC1A06
:100C7000083000400020004800000020AEAE000018
:100C8000FFFF000001A000007CB51D4616460C00C9
:100C900001D0611E00E0002101910090054B6A46E1
:100CA0002946304600F0E8F8002C02D0009A0021D6
:100CB00011707CBDB11500002021020C01D0102163
:100CC0001046020A01D010460839020901D0104628
:100CD000091F820801D01046891E420801D0881ED3
:100CE0007047081A704702E008C8121F08C1002A9E
:100CF000FAD170477047002001E001C1121F002A9D
:100D0000FBD17047F0B51FB486B00998089A030D5F
:100D10000021024314D05148514A18185043051479
:100D20001198012810981AD0281A401C00264D4FFF
:100D30004D49009601910490002812DA444211E0D6
:100D40001198012449A3012801D11098C1430698A4
:100D5000119A84600360C26041600BB0F0BD4042F4
:100D6000E4E70446210500203F4A001C514103915D
:100D7000029012E0E00707D032463B460199009806
:100D8000FFF798FA0191009032463B46104619460B
:100D9000FFF790FA06460F466410002CEAD104983B
:100DA000039B0028029A0999089806DAFFF782FA4D
:100DB000019B009AFFF77EFA05E0FFF7E3FA019B3B
:100DC000009AFFF7DFFA04460E460022284BFFF791
:100DD00071FB03D80020C043014607E00022254BE9
:100DE00020463146FFF7B4F9FFF744FB102409E031
:100DF000002C0ADB0A220023FFF77AF9079B303226
:100E00001A55641E02460A43F2D11122641C079B44
:100E1000121B1C19119B012B03D0012308430ED177
:100E20000AE0084304D0112010900020119077E7C9
:100E30001098151A6D1E0BE01098824202DD0023F7
:100E40006D1C03E0824201DA00236D1E002BEED000
:100E5000069811998260C16030C07EE701FCFFFFF7
:100E6000104D0000000014400000F03F3000000072
:100E70000000F0430000E03FFFB597B006460025B4
:100E800018E2252877D100242746FD49049400E084
:100E90000443761C32780120203A90400842F7D172
:100EA00030782A280ED002223078014630390929BC
:100EB00016D804990A235943303940181443761C34
:100EC0000490F1E7189802C804911890002904DAF8
:100ED0000120400304434842049002200443761C4E
:100EE00030782E2814D1042004437078761C2A28E8
:100EF00009D11898761C80C8189009E00A214F4340
:100F0000303FC719761C3078014630390929F5D9A8
:100F100030786C2810D006DC4C281AD068280ED007
:100F20006A2817D104E0742813D07A2812D110E06F
:100F30000120400504430CE00121090501E00321E3
:100F400009050C437178814203D101200005241862
:100F5000761C761C3078119066280BD013DC58284C
:100F60007DD009DC00287BD04528F6D04628F4D077
:100F700047281AD1A5E118E0632835D0642870D03D
:100F8000652812D19DE170286CD008DC6728F1D06B
:100F900069287BD06E280DD06F2806D1BAE073285F
:100FA0002ED0752871D0782859D01A9A199990475F
:100FB0006D1C7EE16002400F022809D003280DD08D
:100FC0000428189801680DD00D60001D189070E17C
:100FD0001898EA1701680D604A60F6E718980168EA
:100FE0000D80F2E70D70F0E718986A4601781172EB
:100FF000001D18900020507202A80090012005E00A
:10100000189802C8189000200091C04361070DD5C0
:10101000002101E00199491C0191B94212DA814293
:10102000F8DB009A515C0029F4D10BE0002101E0CB
:101030000199491C01918142FADB019A0099895C6E
:101040000029F5D1019904981A9B471A2146384680
:10105000199A00F097FA0199401945180BE04FE0F2
:101060002CE113E04EE0009800990078491C0091B3
:101070001A9A199990470198401E0190401CF2D18C
:10108000214638461A9B199A10E137E00A200021C0
:10109000009001916002410F022907D0189A01CAFD
:1010A0001892C2179446032908D00AE01898C01D68
:1010B000C108C90005C91891944607E000B2C217DB
:1010C0009446042902D140B2C1178C4600226146E1
:1010D000944506DA0A460021404291418C462D2172
:1010E00002E0210504D52B216A461173012103E09A
:1010F000E10701D02021F7E7029155E00A200AE03C
:10110000102008E0102000900021042004430191E9
:10111000082703E008200021019100906002410FA0
:10112000022907D0189A01CA18920022944603296E
:1011300008D008E01898C01DC108C90005C9189159
:10114000944603E080B2042900D1C0B2002102918C
:10115000210729D51199702906D0009A1021019BE9
:101160004A401A4305D00EE040216A46117301211E
:1011700008E06146014306D030216A461173119997
:10118000517302210291009A0821019B4A401A439F
:101190000AD16146014301D1610705D530216A4674
:1011A000117301217F1E02911199582904D035A194
:1011B0000E910DA90D910DE037A1F9E76146019B54
:1011C000009AFEF795FF0E9B8C469B5C0D9A521E73
:1011D0000D92137061460143F0D10D9805A9081ACC
:1011E00020300190600703D501200004844300E013
:1011F00001270198874201DD381A00E0002001999B
:1012000000904118029809180498401A0490E003CD
:1012100006D421461A9B199A049800F0B3F945198F
:10122000002706E003A81A9AC05D199990476D1C23
:101230007F1C02988742F5DBE0030CD521461A9B00
:10124000199A049800F09EF9451904E01A9A302082
:10125000199990476D1C0099481E00900029F5DCF3
:1012600008E00D980D990078491C0D911A9A19996A
:1012700090476D1C0199481E01900029F1DC63E143
:10128000092801003031323334353637383961625C
:101290006364656600000000303132333435363720
:1012A00038394142434445460000000000F05AF9F5
:1012B0004519761C3078002800D0E2E528461BB09E
:1012C000F0BD600700D406271898C01DC108C900EA
:1012D00048680A680831C30FDB071891190001D06C
:1012E0009CA108E0210501D59BA104E0E10701D004
:1012F0009AA100E09AA1430011985B08109165281B
:101300000CD006DC452809D046281DD0472841D1FD
:1013100041E0662818D067283CD13CE00021112F1D
:1013200001DB112000E0781C0191009008A911A8B0
:10133000FFF7E8FC139905910021119A15927F1C83
:1013400012980197009150E00120C00703900120FE
:10135000019008A9009711A8FFF7D4FC139A1499DB
:1013600005920022119B009212981593059A019202
:10137000002901D0104602E0791C40180190381A6B
:1013800001D5019804E04042401E0090781C019075
:10139000C01B029043E0012F00DA01270021112F2A
:1013A00001DD112000E038460191009008A911A844
:1013B000FFF7A8FC13990591119A00211298159234
:1013C0000091019721070CD40599B94201DB0199DD
:1013D00000E00191012904DD159A491E515C302974
:1013E00006D0B84201DA011D05DA0121029115E0AB
:1013F0000199491EEDE7002805DC0099411800918C
:101400000199091A03E0019A411C914200DD019102
:101410000099401A401C02900120C0070390200749
:1014200006D402990198814202DB0020C043029059
:1014300000206946C87707AF012103980337C90721
:10144000884224D0022011902B201290039800286B
:101450000CDA404203902D20129007E00A210398F5
:10146000FFF754F830317F1E039039701199481EF0
:1014700011900029F2DC03980028EFD1791E129810
:1014800008703078202108404530BF1E387006A80B
:10149000C01BC01D039010980078002800D00120C8
:1014A000019941180298C01709180398091804985F
:1014B000401A401E0490E00306D421461A9B199A54
:1014C000049800F05FF8451910980078002803D0C0
:1014D0001A9A199990476D1CE00324D521461A9B4E
:1014E000199A049800F04EF845191CE0009800285D
:1014F00007DB00990598884203DD1598405C19992F
:1015000001E0199930201A9A904700986D1C401CF0
:1015100000900298401E0290002804D11A9A2E20B2
:10152000199990476D1C0199481E01900029DDDC36
:1015300005E038781A9A7F1C199990476D1C039919
:10154000481E03900029F4DC21461A9B199A04983E
:10155000ACE600002D0000002B0000002000000081
:1015600000000000F8B5044600251E461746880412
:1015700004D405E039462020B0476D1C641EF9D51F
:101580002846F8BDFFB50446002581B01E46C803B5
:1015900001D5302700E02027880404D505E038462F
:1015A0000399B0476D1C641EF9D5284605B0F0BDFF
:1015B0004A68002A06D00A68531C0B6010704868FD
:1015C000401E486070472E2E2F4C6962726172690E
:1015D00065732F5054333259303033785F46574C4F
:1015E00069622F7372632F5054333259303033781D
:1015F0005F6E7669632E63002E2E2F4C69627261D6
:10160000726965732F5054333259303033785F46E6
:10161000574C69622F7372632F50543332593030F4
:1016200033785F6770696F2E630000003C1600001E
:0C16300000000020E8020000F60C0000A2
:04000005000000DD1A
:00000001FF
