:020000040000FA
:10000000F8020020C10000009707000091070000DF
:1000100000000000000000000000000000000000E0
:10002000000000000000000000000000FB070000CE
:100030000000000000000000F7070000FD070000BE
:1000400000000000D3000000000000009507000041
:1000500000000000CD060000CF060000D106000021
:10006000D3060000000000000000000000000000B7
:1000700095060000A908000000000000CD0800005F
:10008000D3000000AD0800000000000000000000E8
:10009000F5070000000000000000000093070000CA
:1000A00000000000F907000000000000D108000077
:1000B0001D0900000000000000000000000000001A
:1000C0000448804704480047FEE7FEE7FEE7FEE7F6
:1000D000FEE7FEE701080000DD000000034885465A
:1000E00000F0FCF900480047CD090000F8020020AC
:1000F000F0B51FB40646002082B0054640240191A9
:1001000000901BE0019922460F46304600F02DFA80
:10011000049A059B801A994110D31046194622462D
:1001200000F013FA361A8F41019722460120002170
:10013000009F00F00AFA38184D4100902046641ED6
:100140000028DFDC019B00982946324607B0F0BD4D
:10015000F0B507460846584087B0C00F04904800E5
:100160000E46590040084908BC1A884105D2384655
:1001700031461E4617460B460246580040081043BB
:100180004CD0300D039040055900400D490D0590AD
:10019000401A0290402872DA18030121000B090569
:1001A0000843019004980092002805D0019952421A
:1001B0000020884100920190029840210A1A01997A
:1001C000009800F0C2F905460C466B4607CB00F0DC
:1001D000DDF9C0197141039A0E0D0023D71756405F
:1001E0001A467A40164344D0049A002A2DD0029A27
:1001F000012A039A15DC1205C01A91410126360521
:10020000001C7141D20F059ED20700930192029605
:100210002A46234600F0DAF907B0F0BD38463146E9
:10022000FAE71605224A0F46B218C01AB741012153
:100230000905001C4F4100187F41114618187941EB
:10024000E20F10436D19644113E0E2076D08154396
:100250006408C2071443039A01261205C01A91418B
:100260003605001C7141CE07400830434908C018CC
:1002700051412A46234600F09CF9CDE7FFE7049858
:1002800001224000C117121A00238B410498314605
:10029000C417381AA141EEE730B40124E4076340E3
:1002A00030BC55E730B40124E407614030BC4FE76F
:1002B0000000E0FFF0B51FB488B00B990998002446
:1002C00048400999C00F490049080991C0070B9996
:1002D0000090490049080B9109990898A6460843DF
:1002E0001CD00B990A98084318D0099801244000A3
:1002F000420D4800410D099824050003000B2043DE
:1003000009900B980003000B20430B9050181C49D8
:100310004018002201901446104605E000200146D6
:100320000DB0F0BD032801DA034600E003239C462C
:10033000C11A0AAE0AE05F0008ADED5B4F00F75B43
:100340007D430027AA187C41491C5B1E6145F2DDF4
:10035000410004AB5A522104120C0A43240C401CE5
:100360000828DFDB01980290009970460191009007
:10037000059B049A0799069800F028F9D0E7000039
:100380000DFCFFFFF0B50C465C4085B0E40FE407C0
:1003900003944C000026640859009446490802461C
:1003A0000296224321D062460A431ED06200570DB6
:1003B0004A000E032303550D012402462C4924054F
:1003C000781B1B0B360B40182343264361460090D5
:1003D0001C46501AB44103D30098401C009002E020
:1003E000921800985B41002803DA0020014605B00E
:1003F000F0BD0020012109050746864611E064464C
:100400001D46141BB54106D36546521BB3417446C5
:1004100007430C43A646CD074008490828439218D5
:100420005B4105460D43EAD11046184313D06046A0
:10043000194650407140084306D06046101AB34137
:1004400006D20122002306E000220123DB0702E09E
:100450000122D2435310009874460105381C6141B3
:10046000029C039D0019694100F0A3F8BFE700005A
:10047000FD0300004A0009030123090B1B05194372
:100480000A4B10B5520D9A4202DA0020014610BD07
:10049000064B34339A4203DC9A1A00F066F810BD1A
:1004A000034BD21800F051F810BD0000FF0300000C
:1004B000CDFBFFFF10B5002904DB0124E407404217
:1004C0008C412146002B04DB1C460123DB075242F2
:1004D000A341994200D1904210BD00001CB50948CB
:1004E00000900948019005460126009C05E0E3685C
:1004F00007CC33430C3C98471034AC42F7D3FFF79A
:10050000F1FD0000681700007817000070B5044680
:10051000002903D000202022012310E0002801D070
:100520000020C043C046C0460DE02546D5408D4260
:1005300005D30D469540641B1D4695404019154650
:10054000521E002DF1DC214670BD10B5202A04DBBF
:100550000146203A9140002010BD914020239C1A72
:100560000346E3401943904010BD10B5202A04DB38
:100570000846203AD040002110BD0B46D340D04061
:100580002024A21A91400843194610BD10B5202A14
:1005900006DBCB170846203A1041C1170B4306E093
:1005A0000B461341D0402024A21A9140084319461B
:1005B00010BD10B5002B08DA0024401C61419218D0
:1005C0005B411A4301D14008400010BDF0B51FB493
:1005D00082B005460C0003D0084600F00BFC02E098
:1005E00000F008FC20300246009021462846FFF724
:1005F000ACFF049B059A04460F4618431143084379
:1006000014D0184610431BD0009840210A1A1846EF
:100610000599FFF7AAFF05460E46009A059904982A
:10062000FFF793FF084305D0012004E02046394638
:1006300007B0F0BD0020C11705430E432C433743DC
:1006400000990E986305401A7905E40A00220C43CC
:10065000FD0A0A3002D500200146E9E7010510191C
:1006600069410C9C0D9D00196941FFF7A2FFDFE76E
:10067000D2B201E00270401C491EFBD2704700223A
:10068000F6E710B513460A4604461946FFF7F0FF91
:10069000204610BD0B488168490711D5016C0A49F5
:1006A0000A680121CB0601681940521C03D00029B9
:1006B00004D0016801E0002900D10068A748006962
:1006C0007047C046002401402CF00140704770473D
:1006D00070477047B0B50D4BC3180C24E341042B91
:1006E00010D283680B4383600023002909D0CC0714
:1006F00004D014469C400568254305601B1D49082D
:10070000F3E7B0BD2148D22100F05AF9F0FFFFB75E
:1007100010B51722D20682180C23DA41042A28D2F7
:100720000A68130C21D1002A1FD00B79032B24D285
:100730004979032925D25C1E012C04D88260022B42
:100740000AD054210FE0C26002290AD0012905D045
:10075000002909D1C26405E0502104E0C2644021AF
:1007600001E082644421425010BD08482F2100F06E
:1007700027F906482E2100F023F90448302100F023
:100780001FF90248312100F01BF9C0463417000060
:10079000FEE7704770477047F8B58378022B1BD28D
:1007A0004278042A1CD211490078002B0DD0FC237A
:1007B00003400F4C1D598607F60EFF27B740BD4377
:1007C0009201B2402A431A5100E080311F221040AA
:1007D000012282400A60F8BD03482C2100F0F0F8A5
:1007E00001482D2100F0ECF80217000000E100E0C4
:1007F00000E400E0704770477047704770470000A2
:1008000070B52648016B0F230B40856984694268E7
:1008100041680F2B01D0002B18D140231A40FF262E
:100820003602354005263602B54205D106252C4054
:10083000062C01D1002A04D0002A00D04360184AB7
:100840008260090502D50121C90241600121CA4324
:10085000144B1C6814401C609C680C439C601C6911
:1008600014401C61026803239A430260026802601C
:100870001F22130104689C4304600368036012068E
:10088000036893430360026802600268920700D025
:10089000FEE7090502680A43026070BD0CF00140E2
:1008A00056AB000008180040704700000648016879
:1008B000C90707D0016801220A430260274801697D
:1008C000491C01617047C04600100040704700009D
:1008D00070B5214C2069C00704D12048C168491C6B
:1008E000C16070BD1D4D2E69A868301A062806D358
:1008F0000020A880284634304121FFF7C0FEAE60BA
:100900002068A9883F2905D8A9884A1CAA806918A7
:10091000342288542069C007F2D170BD70470000AE
:1009200070B50C4A1023136000250B4C8D4206D085
:1009300026697605FCD4465D26606D1CF6E72069C5
:10094000C005FCD5054801690469641A022CFBD373
:10095000536070BD78300048004400400000002023
:1009600083B0C0B503A80EC003AB00930748802135
:1009700007A200F027FA012803DB81B20348FFF742
:10098000CFFF88BC01BC03B00047C0467500002003
:1009900057726F6E6720706172616D6574657273F6
:1009A0002076616C75653A2066696C652025732038
:1009B0006F6E206C696E6520256C750D0A00000055
:1009C0000A460146FFF7CCFFFEE7000090B00EA9F3
:1009D00001248C800E94E84D2846FFF799FE1035CF
:1009E00002220192E54B284621469847E44800261A
:1009F0000660E44807210160E34D28690821009161
:100A0000884328612869286132206861DF4868606E
:100A10000EA8847046701121017029692143296153
:100A2000FFF7BAFE286820432860D94F10372021ED
:100A300038462246D14DA847402138462246A8478D
:100A40000EA98C8010270E97D148FFF761FE0DA8E4
:100A500084701B21017001994170FFF79DFECD4A02
:100A60009068204390600496F643D66196611068C2
:100A700076218843FF210A31029108431060C64D58
:100A80002868C005C00E411CC448FFF73FFD296817
:100A9000C900C90E491CFFF739FD0546C00A4B289D
:100AA0000C9406960DD34B26F1022846FFF72EFD37
:100AB0000446BB4941434919B202914200D9641C22
:100AC000069EB44A54601068802101431160B0480A
:100AD000C767B44CB4482060B44A104608380C9B31
:100AE000D9030160536010680199084310601068D1
:100AF00018431060266018020EA90B918880009898
:100B00000E90AB4D2846FFF703FE0C980B9988809A
:100B10000E972846FFF7FCFDAF67A649084624302C
:100B2000049B039003734B628B62CB620EA8001D83
:100B30000A904869059307930C930A69824200D191
:100B400012E108694861CC690A69141B642C1DD341
:100B5000CA61CC78A34201D00A62CB70002B15D0B9
:100B60000C6A121BC92A11D300234B628B62CB6221
:100B70008B700B800246039803738E480169104600
:100B80008C49059307930C93049321E00A69002B89
:100B900012D00C9C121B029C2334A2420DD90023BC
:100BA0004B628B62CB620246039803731046059337
:100BB00007930C93049300E000230A78012A07D1DD
:100BC0008A690C69A21AC92A3ED300228A700A8057
:100BD000AF6701220024112A09D0EF672E68AF67A2
:100BE0003607164600D52646521C3446F3E70993CD
:100BF0004A782606E3B20B930BD008908E789E1BA2
:100C00000846714271410A420DD0069E654C089813
:100C10001DE0002A069E19D0089008690C90886291
:100C20000024099B98E001690C9107990129069E0F
:100C3000014617D126228B5C0B98834209D10C9870
:100C400088620123079387E0564C8DE0554C099B41
:100C50008AE00598010619D10B98834207920DD3BB
:100C600002200CE001238B840C98886203980472A4
:100C7000C37084700020059007936CE001200590FC
:100C800025214C48059A42540598079A0B998B42A6
:100C9000C1B2099102D2C1B2012905D00B998B4290
:100CA0004FD9099902294CD1049B082B10D20590E9
:100CB000591C03980791C170C1180C723D490C9AD8
:100CC0008A628470012B07D8012307980490B9E742
:100CD00038498C540C98886224200A460199115492
:100CE0000EA8009A8280344A0280099A012A00D113
:100CF000114681710020314904280FD00A9A125CF4
:100D00005140F21F002A07D04B08C90701D02C49D7
:100D10004B401946521CF5E7401CEDE70EA84180F8
:100D20000821FFF7FDFD01202249087000234B62D6
:100D30008B62CB62039803730869886148690890E5
:100D400006E000231B494B628B62CB62039803735E
:100D5000059307930C9304938C7008460B9A511ECD
:100D60008A4142700F4C08980F49216001210F4AB7
:100D7000516026600F49E0E600100048D5060000EB
:100D8000041400480018004004100040BF12000086
:100D900000300048044400400CF00140006CDC02CC
:100DA00000A8FDFF0034004051E5CC1A0830004097
:100DB0000020004800000020AEAE0000FFFF000051
:100DC00001A000007CB51D4616460C0001D0611E36
:100DD00000E0002101910090054B6A46294630460B
:100DE00000F0E8F8002C02D0009A002111707CBDC0
:100DF000ED1600002021020C01D010211046020A3D
:100E000001D010460839020901D01046091F820896
:100E100001D01046891E420801D0881E7047081A6A
:100E2000704702E008C8121F08C1002AFAD17047B3
:100E30007047002001E001C1121F002AFBD170475A
:100E4000F0B51FB486B00998089A030D002102433B
:100E500014D05148514A18185043051411980128CC
:100E600010981AD0281A401C00264D4F4D49009664
:100E700001910490002812DA444211E011980124F3
:100E800049A3012801D11098C1430698119A8460A2
:100E90000360C26041600BB0F0BD4042E4E704462D
:100EA000210500203F4A001C51410391029012E0AD
:100EB000E00707D032463B4601990098FFF7FAF960
:100EC0000191009032463B4610461946FFF7F2F971
:100ED00006460F466410002CEAD10498039B0028B4
:100EE000029A0999089806DAFFF7E4F9019B009A3B
:100EF000FFF7E0F905E0FFF745FA019B009AFFF7DD
:100F000041FA04460E460022284BFFF7D3FA03D8D5
:100F10000020C043014607E00022254B2046314611
:100F2000FFF716F9FFF7A6FA102409E0002C0ADBF8
:100F30000A220023FFF7DCF8079B30321A55641EA3
:100F400002460A43F2D11122641C079B121B1C1992
:100F5000119B012B03D0012308430ED10AE0084363
:100F600004D0112010900020119077E71098151AE6
:100F70006D1E0BE01098824202DD00236D1C03E021
:100F8000824201DA00236D1E002BEED006981199E3
:100F90008260C16030C07EE701FCFFFF104D0000A1
:100FA000000014400000F03F300000000000F0435B
:100FB0000000E03FFFB597B00646002518E225285F
:100FC00077D100242746FD49049400E00443761CB1
:100FD00032780120203A90400842F7D130782A2810
:100FE0000ED00222307801463039092916D80499EA
:100FF0000A235943303940181443761C0490F1E712
:10100000189802C804911890002904DA01204003BE
:1010100004434842049002200443761C30782E2872
:1010200014D1042004437078761C2A2809D118981A
:10103000761C80C8189009E00A214F43303FC71939
:10104000761C3078014630390929F5D930786C287A
:1010500010D006DC4C281AD068280ED06A2817D188
:1010600004E0742813D07A2812D110E00120400542
:1010700004430CE00121090501E0032109050C43AB
:101080007178814203D1012000052418761C761C5A
:101090003078119066280BD013DC58287DD009DCFD
:1010A00000287BD04528F6D04628F4D047281AD10E
:1010B000A5E118E0632835D0642870D0652812D1E6
:1010C0009DE170286CD008DC6728F1D069287BD0BE
:1010D0006E280DD06F2806D1BAE073282ED075285F
:1010E00071D0782859D01A9A199990476D1C7EE1D1
:1010F0006002400F022809D003280DD00428189858
:1011000001680DD00D60001D189070E11898EA1765
:1011100001680D604A60F6E7189801680D80F2E7F3
:101120000D70F0E718986A4601781172001D18904A
:101130000020507202A80090012005E0189802C813
:10114000189000200091C04361070DD5002101E0F7
:101150000199491C0191B94212DA8142F8DB009AE7
:10116000515C0029F4D10BE0002101E00199491CF8
:1011700001918142FADB019A0099895C0029F5D13D
:10118000019904981A9B471A21463846199A00F08B
:1011900097FA0199401945180BE04FE02CE113E054
:1011A0004EE0009800990078491C00911A9A19990C
:1011B00090470198401E0190401CF2D121463846CC
:1011C0001A9B199A10E137E00A2000210090019142
:1011D0006002410F022907D0189A01CA1892C2175B
:1011E0009446032908D00AE01898C01DC108C90018
:1011F00005C91891944607E000B2C2179446042925
:1012000002D140B2C1178C4600226146944506DAED
:101210000A460021404291418C462D2102E02105E1
:1012200004D52B216A461173012103E0E10701D0A7
:101230002021F7E7029155E00A200AE0102008E09B
:10124000102000900021042004430191082703E0AE
:1012500008200021019100906002410F022907D06F
:10126000189A01CA189200229446032908D008E06F
:101270001898C01DC108C90005C91891944603E01B
:1012800080B2042900D1C0B200210291210729D5E2
:101290001199702906D0009A1021019B4A401A43E7
:1012A00005D00EE040216A461173012108E0614635
:1012B000014306D030216A461173119951730221FE
:1012C0000291009A0821019B4A401A430AD16146C3
:1012D000014301D1610705D530216A46117301210F
:1012E0007F1E02911199582904D035A10E910DA9A4
:1012F0000D910DE037A1F9E76146019B009AFEF7D9
:10130000F7FE0E9B8C469B5C0D9A521E0D9213703D
:1013100061460143F0D10D9805A9081A20300190CB
:10132000600703D501200004844300E001270198F1
:10133000874201DD381A00E0002001990090411831
:10134000029809180498401A0490E00306D4214634
:101350001A9B199A049800F0B3F94519002706E082
:1013600003A81A9AC05D199990476D1C7F1C0298BA
:101370008742F5DBE0030CD521461A9B199A0498A5
:1013800000F09EF9451904E01A9A30201999904707
:101390006D1C0099481E00900029F5DC08E00D98AE
:1013A0000D990078491C0D911A9A199990476D1C56
:1013B0000199481E01900029F1DC63E10928010030
:1013C00030313233343536373839616263646566BB
:1013D000000000003031323334353637383941427D
:1013E000434445460000000000F05AF94519761CB8
:1013F0003078002800D0E2E528461BB0F0BD600739
:1014000000D406271898C01DC108C90048680A689A
:101410000831C30FDB071891190001D09CA108E027
:10142000210501D59BA104E0E10701D09AA100E0CC
:101430009AA1430011985B08109165280CD006DC36
:10144000452809D046281DD0472841D141E06628CB
:1014500018D067283CD13CE00021112F01DB11207E
:1014600000E0781C0191009008A911A8FFF7E8FCA2
:10147000139905910021119A15927F1C12980197DA
:10148000009150E00120C00703900120019008A9BD
:10149000009711A8FFF7D4FC139A14990592002223
:1014A000119B009212981593059A0192002901D080
:1014B000104602E0791C40180190381A01D50198B5
:1014C00004E04042401E0090781C0190C01B029036
:1014D00043E0012F00DA01270021112F01DD112047
:1014E00000E038460191009008A911A8FFF7A8FC78
:1014F00013990591119A0021129815920091019764
:1015000021070CD40599B94201DB019900E0019152
:10151000012904DD159A491E515C302906D0B842D4
:1015200001DA011D05DA0121029115E00199491E38
:10153000EDE7002805DC0099411800910199091A8E
:1015400003E0019A411C914200DD01910099401A8B
:10155000401C02900120C0070390200706D4029986
:101560000198814202DB0020C043029000206946BE
:10157000C87707AF012103980337C907884224D0F1
:10158000022011902B201290039800280CDA404280
:1015900003902D20129007E00A210398FEF7B6FF72
:1015A00030317F1E039039701199481E1190002927
:1015B000F2DC03980028EFD1791E12980870307879
:1015C000202108404530BF1E387006A8C01BC01D32
:1015D000039010980078002800D00120019941184C
:1015E0000298C0170918039809180498401A401E59
:1015F0000490E00306D421461A9B199A049800F03F
:101600005FF8451910980078002803D01A9A1999A4
:1016100090476D1CE00324D521461A9B199A049823
:1016200000F04EF845191CE00098002807DB0099EF
:101630000598884203DD1598405C199901E01999D5
:1016400030201A9A904700986D1C401C0090029818
:10165000401E0290002804D11A9A2E201999904712
:101660006D1C0199481E01900029DDDC05E03878E9
:101670001A9A7F1C199990476D1C0399481E039074
:101680000029F4DC21461A9B199A0498ACE6000064
:101690002D0000002B0000002000000000000000D2
:1016A000F8B5044600251E461746880404D405E014
:1016B00039462020B0476D1C641EF9D52846F8BD78
:1016C000FFB50446002581B01E46C80301D530276A
:1016D00000E02027880404D505E038460399B04788
:1016E0006D1C641EF9D5284605B0F0BD4A68002A75
:1016F00006D00A68531C0B6010704868401E486092
:1017000070472E2E2F4C69627261726965732F507B
:1017100054333259303033785F46574C69622F73F7
:1017200072632F5054333259303033785F6E76699C
:10173000632E63002E2E2F4C69627261726965738D
:101740002F5054333259303033785F46574C6962EA
:101750002F7372632F5054333259303033785F67B0
:1017600070696F2E630000007817000000000020F1
:08177000F8020000320E000037
:04000005000000DD1A
:00000001FF
